:1000000003C003C003C003C003C003C003C003C0D8
:100080000EC025C024C023C022C021C020C01FC074
:100090001EC01DC01CC01BC01AC019C018C0000063
:1000A0000000000000000000000000000000000050
:1000B000000000000000000000000000000011240B
:1000C0001FBECFE5D2E0DEBFCDBF33D44BC4D8CF07
:1000D0009C012115310509F408958DE190E1019706
:1000E000F1F721503109F5CF807CDB0130E020E0D1
:1000F000FC01E20FF31F459154914D935D932E5FE8
:100100003F4F20343105A1F70895FC01E07C83E0E6
:1001100080935700E89507B600FCFDCF08959C0139
:10012000DB01CB01805C9F4FF9016D917D9141E036
:100130000B0140935700E89511243296A817B90790
:10014000A1F785E0F90180935700E89507B600FC18
:10015000FDCF0895CF93DF93CDB7DEB7C054D1095B
:100160000FB6F894DEBF0FBECDBFBE016F5F7F4FED
:1001700090E080E0B9DFFE013196CE018F5B9F4FAA
:100180002FEF3FEF21933193E817F907C9F790E07C
:1001900080E0BBDFBE016F5F7F4F90E080E0BFDF9C
:1001A000C05CDF4F0FB6F894DEBF0FBECDBFDF914E
:1001B000CF910895CF92DF92EF92FF920F931F930A
:1001C000CF93DF93CDB7DEB7C054D1090FB6F89403
:1001D000DEBF0FBECDBF8CEFE82E82E0F82E10E020
:1001E00000E076E00633170784F0C05CDF4F0FB6FF
:1001F000F894DEBF0FBECDBFDF91CF911F910F915D
:10020000FF90EF90DF90CF900895A70130E020E0BD
:10021000C9018E7F69E0423356072CF5FA016591DA
:100220007491E1E0F0E0EC0FFD1F8E0F9F1FFC01C9
:10023000718360832E5F3F4F4E5F5F4F20343105E7
:1002400039F76801F0E4CF1AF6EEDF0AC6015DDF88
:10025000BE016F5F7F4FC60162DF005C1F4F60E42D
:10026000E60EF11CBECF61E070E06C0F7D1F860FC3
:10027000971F6FEF7FEFDBCF0F931F93CF93DF932A
:10028000CDB7DEB7C054D1090FB6F894DEBF0FBEAC
:10029000CDBFFE013196CE018F5B9F4F8F012FEDB9
:1002A0003CEC21933193E817F907C9F790E080E01F
:1002B0002CDFB80190E080E032DFC05CDF4F0FB68A
:1002C000F894DEBF0FBECDBFDF91CF911F910F918C
:1002D0000895CF9387B3836087BBC198CAEF81E04D
:1002E00090E0F6DEC19A81E090E0F2DEC198C15064
:1002F000B1F7CF910895F0E0E0E0099416C019BA83
:100300004005930B1500090212000101008032091B
:10031000040000000000000012011001FF000008AE
:10032000D016530706020000000111241FBECFE5BE
:10033000D2E0CDBFDEBF20E0A0E6B0E001C01D925C
:10034000AC38B207E1F78EC1DC0180E090E041E01B
:1003500050EA609530E009C02D91822797958795E6
:1003600010F084279527305EC8F36F5FA8F38D9354
:100370009D930895CF93DF93CC27C395B39BE9F763
:10038000B39B0BC0B39B09C0B39B07C0B39B05C015
:10039000B39B03C0B39B01C0D1C00F920F90C0911B
:1003A0006E00DD27CA58DF4F012EB39B03C00F92AA
:1003B0000F90E6CF0F930F910F930F912FEF4F6F89
:1003C00006B303FB20F90F930F9150E03BE065C0AB
:1003D00016B30126502953FDC89556B3012703FBD8
:1003E00025F92F7306B3B1F05027102713FB26F918
:1003F00006B22230F0F000C016B3012703FB27F944
:100400000126502906B22430E8F54F77206816B34C
:100410000000F6CF50274F7D206206B2102F00005B
:1004200000C006B300265029102713FB26F906B298
:10043000E2CF4F7B06B3206400C0DACF01265029FB
:10044000187106B269F14E7F2160012F16B328C0E2
:10045000002650294D7F06B22260102F29C00126A8
:1004600050294B7F06B22460012F2DC016B3012600
:100470005029477F2860000006B22EC04F7E06B389
:10048000206130C0422706B3499300265029102727
:1004900006B24FEF13FB20F9297F16B379F21871DA
:1004A00059F10126502906B2012703FB21F9237FC8
:1004B00006B371F2002650293150D0F006B2102751
:1004C00013FB22F9277E16B351F20126502901278A
:1004D00003FB06B223F92F7C49F2000006B3102774
:1004E00013FB24F90026502906B22F7939F270CF78
:1004F00010E21ABF00271DC03B503195C31BD040EE
:1005000010E21ABF0881033CE1F00B34D1F02091D6
:100510006C001981110F1213EDCF093609F10D325C
:1005200011F0013E39F7CAE01AB715FD02C0CA95AD
:10053000D9F700937400CAB7C5FD1FCFDF91CF91E3
:100540000895209174002223B1F3109172001123B9
:10055000F1F43430F2F03093720020936D0019C042
:100560000091720001309CF40AE530916F0034FD77
:1005700011C000936F00C1E6D0E010C0052710E065
:1005800000C021C0052710E0C89508BB14C03AE59B
:1005900001C032ED032EC0E0D0E032E017B31861A5
:1005A000C39A08B317BB58E120E84FEF20FF052797
:1005B00008BB279517951C3F28F700004552B0F758
:1005C00020FF0527279508BB17951C3FB8F62991F2
:1005D0003A9561F7077E10917300110F08BBC25066
:1005E000D04011F010936C0010E21ABF086017B3EE
:1005F000177E402F477E54E05A95F1F708BB17BB92
:1006000048BB99CFB39BFECF07D006D001D000D016
:100610009B5A71B7791B71BF6FEF80E2992766957E
:1006200076B37029809674FB67F906B203FE6623E1
:10063000B1F708959C01F201309789F08AEB4816D2
:1006400089E1580611F421B730E081E00901809377
:100650005700E8951124CF0102962C0108952FED43
:100660003CECF3CFEAEBF9E1E491EF3F11F0E1BFAD
:100670000000B39B03C004B600FC06C0EDEBF9E13B
:10068000E491EF3F09F0E0C088E181BD87E081BDE2
:10069000BB9A88EB9BE0ECE9F1E03197F1F7019729
:1006A000D1F7BB988AE580936F008FEF809360004D
:1006B000AC9A8BB780628BBFB99A34E7632E34E073
:1006C000732E312C512C412CCCE7D5E114E686B3A6
:1006D000887109F014E6115049F4109273001092D9
:1006E0006C0090DF20EC622E23E0722E0AB605FE2D
:1006F0009DC040DE80E28ABFA89522E032120CC085
:10070000E0ECF9E1E054F10983E080935700E895CB
:100710003097C1F7512C412C832D803409F08AC0C9
:10072000F2013297E03C89E1F80720F485E08093FC
:100730005700E895312C80917200835087FD2EC0C0
:1007400090916D009D3219F5883009F52091770060
:1007500093EC909361009AE590936F0090917800EC
:10076000207609F49BC0712C911172C022EC39E102
:10077000309371002093700090917E00911105C01C
:1007800090917D00981708F4892F80936000109253
:10079000720080917700807609F0712C80916F0053
:1007A00084FF35C0809160008F3F89F1C82F893068
:1007B00008F0C8E0982F9C1B909360009091610016
:1007C00028E89227909361008823A1F0209170007F
:1007D000E22FF091710082E690E03491DC013C93CD
:1007E000019631963C2F320F3E13F7CFF0937100F4
:1007F000E09370006C2F82E690E0A6DD84E08C0F21
:10080000C83019F09FEF9093600080936F00C30190
:1008100001963C01803B24E0920709F07BC0EDEBA0
:10082000F9E1E491EF3F61F4C19A78C0219709F0B2
:100830004ECF62CF843009F07DCFCD2B09F07BCF36
:10084000C19817BA1BBE15BA84B781BB14BE54CD6C
:10085000913079F44114510411F480E08DCF8091EE
:100860007B00807C482E50907C0081E187BFE8951A
:10087000F4CF933081F48091790090917A00DADEA0
:1008800080917B0090917C00D5DE842D8F7329F7B9
:1008900090E4392E71CF9F73392EDFCF809179008C
:1008A00010926A0091110BC010926B008AE690E0E2
:1008B00022E09093710080937000822F5DCF95307D
:1008C00029F4809373008AE690E0F3CF963091F498
:1008D00080917A00813041F48CED99E19093710020
:1008E0008093700082E148CF823009F0B6CF8AEC65
:1008F00099E1F4CF983051F0993019F48093750054
:10090000E2CF21E09A30F9F220E0DDCF85E790E0F8
:1009100021E0CFCF8C7409F487CFC1980AB605FEC9
:10092000D3CE8DE1B39B8DE18150E1F780E28ABFA8
:10093000CBCE88B318BA87B38FEF87BB8AEF90E02E
:10094000C7DB87B317BA8AEF90E0C2DBF89402DC0A
:1009500031DC92DCBEDC8DEB99E1D7DBCCDC90E0C6
:0809600080E00895F894FFCF38
:040000030000008079
:00000001FF
